:100000000C945C000C9479000C9479000C947900A9
:100010000C9479000C9479000C9479000C9479007C
:100020000C9479000C9479000C9479000C9479006C
:100030000C9479000C9479000C9479000C9479005C
:100040000C941D010C9479000C9479000C947900A7
:100050000C9479000C9479000C9479000C9479003C
:100060000C9479000C947900000000002400270013
:100070002A0000000000250028002B0004040404CE
:100080000404040402020202020203030303030342
:10009000010204081020408001020408102001021F
:1000A00004081020000000080002010000030407FB
:1000B000000000000000000011241FBECFEFD8E0B8
:1000C000DEBFCDBF11E0A0E0B1E0E4E6F5E002C0A4
:1000D00005900D92A030B107D9F721E0A0E0B1E082
:1000E00001C01D92A930B207E1F70E9467010C948C
:1000F000B0020C94000090E0FC01EC55FF4F2491FD
:10010000FC01E057FF4F3491FC01E458FF4FE491AC
:10011000EE23C9F0222339F0233001F1A8F4213075
:1001200019F1223029F1F0E0EE0FFF1FEE58FF4FDA
:10013000A591B4918FB7F894EC91611126C03095D8
:100140003E233C938FBF08952730A9F02830C9F093
:10015000243049F7809180008F7D03C0809180001A
:100160008F7780938000DFCF84B58F7784BDDBCF1E
:1001700084B58F7DFBCF8091B0008F778093B000E6
:10018000D2CF8091B0008F7DF9CF3E2BDACFCF93C5
:10019000DF9390E0FC01E057FF4F249184589F4F7C
:1001A000FC0184918823D1F090E0880F991FFC0115
:1001B000E859FF4FA591B491FC01EE58FF4FC5914E
:1001C000D49161110EC09FB7F8948C91E22FE09505
:1001D0008E238C932881E223E8839FBFDF91CF9108
:1001E00008958FB7F894EC91E22BEC938FBFF6CF84
:1001F0003FB7F8948091050190910601A091070105
:10020000B091080126B5A89B05C02F3F19F00196B3
:10021000A11DB11D3FBFBA2FA92F982F8827BC0160
:10022000CD01620F711D811D911D42E0660F771F88
:10023000881F991F4A95D1F708951F920F920FB604
:100240000F9211242F933F938F939F93AF93BF935C
:100250008091010190910201A0910301B0910401EC
:100260003091000123E0230F2D3758F50196A11D91
:10027000B11D209300018093010190930201A0938E
:100280000301B09304018091050190910601A091B2
:100290000701B09108010196A11DB11D80930501D0
:1002A00090930601A0930701B0930801BF91AF910D
:1002B0009F918F913F912F910F900FBE0F901F90A4
:1002C000189526E8230F0296A11DB11DD2CF789470
:1002D00084B5826084BD84B5816084BD85B582604B
:1002E00085BD85B5816085BD80916E0081608093FC
:1002F0006E00109281008091810082608093810065
:100300008091810081608093810080918000816074
:10031000809380008091B10084608093B1008091CF
:10032000B00081608093B00080917A0084608093F7
:100330007A0080917A00826080937A0080917A00BE
:10034000816080937A0080917A00806880937A003F
:100350001092C10060E08EE00E94C70061E086E07C
:100360000E94C70061E085E00E94C70061E089E06B
:100370000E94C700D0E488248A9483E0982EA12CA0
:10038000B12C9AEAC92E90E0D92E20E0E22E20E08E
:10039000F22E61E089E00E947B0060E085E00E942F
:1003A0007B00D0937C0080917A00806480937A00F7
:1003B00080917A0086FDFCCF80917800A091790031
:1003C000BA2FA82F2FEF30E00E94A902A5019401B7
:1003D0000E945902C22F732E022F132F61E086E074
:1003E0000E94C70001151105D1F460E086E00E946B
:1003F0007B000E94F8002B013C010E94F800641968
:10040000750986099709683E734081059105A8F32F
:10041000E114F10409F4BDCF0E940000BACF0F3FF0
:10042000110511F461E0E2CFF6018491833029F1E6
:1004300040F48130C1F08230D9F00038110594F7D2
:10044000D4CF873031F1883061F18430B1F78091B9
:1004500080008062809380008C2F972D90938B007A
:1004600080938A00C6CF84B5806884BDC7BDC1CFE4
:1004700084B5806284BDC8BDBCCF80918000806897
:10048000809380008C2F972D909389008093880013
:10049000B0CF8091B00080688093B000C093B3006B
:1004A000A8CF8091B00080628093B000C093B40068
:1004B000A0CF052E97FB1EF400940E94700257FDFA
:1004C00007D00E94780207FC03D04EF40C9470020F
:1004D00050954095309521953F4F4F4F5F4F089570
:1004E00090958095709561957F4F8F4F9F4F0895A0
:1004F000A1E21A2EAA1BBB1BFD010DC0AA1FBB1F28
:10050000EE1FFF1FA217B307E407F50720F0A21B99
:10051000B30BE40BF50B661F771F881F991F1A9406
:1005200069F760957095809590959B01AC01BD0130
:10053000CF010895A29FB001B39FC001A39F700D8A
:10054000811D1124911DB29F700D811D1124911DDB
:1005500008950E949A02B7FF0895821B930B089595
:04056000F894FFCF3D
:00000001FF
